{
  "contractName": "TasksContract",
  "abi": [
    {
      "inputs": [],
      "stateMutability": "nonpayable",
      "type": "constructor"
    },
    {
      "anonymous": false,
      "inputs": [
        {
          "indexed": false,
          "internalType": "uint256",
          "name": "id",
          "type": "uint256"
        },
        {
          "indexed": false,
          "internalType": "string",
          "name": "title",
          "type": "string"
        },
        {
          "indexed": false,
          "internalType": "string",
          "name": "description",
          "type": "string"
        },
        {
          "indexed": false,
          "internalType": "string",
          "name": "amount",
          "type": "string"
        },
        {
          "indexed": false,
          "internalType": "bool",
          "name": "done",
          "type": "bool"
        },
        {
          "indexed": false,
          "internalType": "uint256",
          "name": "createdAt",
          "type": "uint256"
        }
      ],
      "name": "TaskCreated",
      "type": "event"
    },
    {
      "anonymous": false,
      "inputs": [
        {
          "indexed": false,
          "internalType": "uint256",
          "name": "id",
          "type": "uint256"
        },
        {
          "indexed": false,
          "internalType": "bool",
          "name": "done",
          "type": "bool"
        }
      ],
      "name": "TaskToggleDone",
      "type": "event"
    },
    {
      "inputs": [],
      "name": "taskCounter",
      "outputs": [
        {
          "internalType": "uint256",
          "name": "",
          "type": "uint256"
        }
      ],
      "stateMutability": "view",
      "type": "function",
      "constant": true
    },
    {
      "inputs": [
        {
          "internalType": "uint256",
          "name": "",
          "type": "uint256"
        }
      ],
      "name": "tasks",
      "outputs": [
        {
          "internalType": "uint256",
          "name": "id",
          "type": "uint256"
        },
        {
          "internalType": "string",
          "name": "title",
          "type": "string"
        },
        {
          "internalType": "string",
          "name": "description",
          "type": "string"
        },
        {
          "internalType": "string",
          "name": "amount",
          "type": "string"
        },
        {
          "internalType": "bool",
          "name": "done",
          "type": "bool"
        },
        {
          "internalType": "uint256",
          "name": "createdAt",
          "type": "uint256"
        }
      ],
      "stateMutability": "view",
      "type": "function",
      "constant": true
    },
    {
      "inputs": [
        {
          "internalType": "string",
          "name": "_title",
          "type": "string"
        },
        {
          "internalType": "string",
          "name": "_description",
          "type": "string"
        },
        {
          "internalType": "string",
          "name": "_amount",
          "type": "string"
        }
      ],
      "name": "createTask",
      "outputs": [],
      "stateMutability": "nonpayable",
      "type": "function"
    },
    {
      "inputs": [
        {
          "internalType": "uint256",
          "name": "_id",
          "type": "uint256"
        }
      ],
      "name": "toggleDone",
      "outputs": [],
      "stateMutability": "nonpayable",
      "type": "function"
    }
  ],
  "bytecode": "0x6080604052600080553480156200001557600080fd5b50620000c86040518060400160405280601181526020017f746172656120706f72206465666563746f0000000000000000000000000000008152506040518060400160405280600f81526020017f73696e20636f6d656e746172696f7300000000000000000000000000000000008152506040518060400160405280600581526020017f302e303033000000000000000000000000000000000000000000000000000000815250620000ce60201b60201c565b620004fc565b600080815480929190620000e2906200043f565b91905055506040518060c001604052806000548152602001848152602001838152602001828152602001600015158152602001428152506001600080548152602001908152602001600020600082015181600001556020820151816001019080519060200190620001559291906200020c565b506040820151816002019080519060200190620001749291906200020c565b506060820151816003019080519060200190620001939291906200020c565b5060808201518160040160006101000a81548160ff02191690831515021790555060a082015181600501559050507fe37fbba42c32ff64c16369c34737389d05510978760921eee5027573d2904a13600054848484600042604051620001ff969594939291906200031f565b60405180910390a1505050565b8280546200021a9062000409565b90600052602060002090601f0160209004810192826200023e57600085556200028a565b82601f106200025957805160ff19168380011785556200028a565b828001600101855582156200028a579182015b82811115620002895782518255916020019190600101906200026c565b5b5090506200029991906200029d565b5090565b5b80821115620002b85760008160009055506001016200029e565b5090565b620002c781620003bd565b82525050565b6000620002da82620003a1565b620002e68185620003ac565b9350620002f8818560208601620003d3565b6200030381620004eb565b840191505092915050565b6200031981620003c9565b82525050565b600060c0820190506200033660008301896200030e565b81810360208301526200034a8188620002cd565b90508181036040830152620003608187620002cd565b90508181036060830152620003768186620002cd565b9050620003876080830185620002bc565b6200039660a08301846200030e565b979650505050505050565b600081519050919050565b600082825260208201905092915050565b60008115159050919050565b6000819050919050565b60005b83811015620003f3578082015181840152602081019050620003d6565b8381111562000403576000848401525b50505050565b600060028204905060018216806200042257607f821691505b60208210811415620004395762000438620004bc565b5b50919050565b60006200044c82620003c9565b91507fffffffffffffffffffffffffffffffffffffffffffffffffffffffffffffffff8214156200048257620004816200048d565b5b600182019050919050565b7f4e487b7100000000000000000000000000000000000000000000000000000000600052601160045260246000fd5b7f4e487b7100000000000000000000000000000000000000000000000000000000600052602260045260246000fd5b6000601f19601f8301169050919050565b610c78806200050c6000396000f3fe608060405234801561001057600080fd5b506004361061004c5760003560e01c806358671730146100515780638d9776721461006f578063d2344f0a146100a4578063d81ef739146100c0575b600080fd5b6100596100dc565b6040516100669190610949565b60405180910390f35b610089600480360381019061008491906108c5565b6100e2565b60405161009b9695949392919061098d565b60405180910390f35b6100be60048036038101906100b9919061081e565b6102c3565b005b6100da60048036038101906100d591906108c5565b6103f7565b005b60005481565b600160205280600052604060002060009150905080600001549080600101805461010b90610acd565b80601f016020809104026020016040519081016040528092919081815260200182805461013790610acd565b80156101845780601f1061015957610100808354040283529160200191610184565b820191906000526020600020905b81548152906001019060200180831161016757829003601f168201915b50505050509080600201805461019990610acd565b80601f01602080910402602001604051908101604052809291908181526020018280546101c590610acd565b80156102125780601f106101e757610100808354040283529160200191610212565b820191906000526020600020905b8154815290600101906020018083116101f557829003601f168201915b50505050509080600301805461022790610acd565b80601f016020809104026020016040519081016040528092919081815260200182805461025390610acd565b80156102a05780601f10610275576101008083540402835291602001916102a0565b820191906000526020600020905b81548152906001019060200180831161028357829003601f168201915b5050505050908060040160009054906101000a900460ff16908060050154905086565b6000808154809291906102d590610b30565b91905055506040518060c0016040528060005481526020018481526020018381526020018281526020016000151581526020014281525060016000805481526020019081526020016000206000820151816000015560208201518160010190805190602001906103469291906106f6565b5060408201518160020190805190602001906103639291906106f6565b5060608201518160030190805190602001906103809291906106f6565b5060808201518160040160006101000a81548160ff02191690831515021790555060a082015181600501559050507fe37fbba42c32ff64c16369c34737389d05510978760921eee5027573d2904a136000548484846000426040516103ea9695949392919061098d565b60405180910390a1505050565b6000600160008381526020019081526020016000206040518060c00160405290816000820154815260200160018201805461043190610acd565b80601f016020809104026020016040519081016040528092919081815260200182805461045d90610acd565b80156104aa5780601f1061047f576101008083540402835291602001916104aa565b820191906000526020600020905b81548152906001019060200180831161048d57829003601f168201915b505050505081526020016002820180546104c390610acd565b80601f01602080910402602001604051908101604052809291908181526020018280546104ef90610acd565b801561053c5780601f106105115761010080835404028352916020019161053c565b820191906000526020600020905b81548152906001019060200180831161051f57829003601f168201915b5050505050815260200160038201805461055590610acd565b80601f016020809104026020016040519081016040528092919081815260200182805461058190610acd565b80156105ce5780601f106105a3576101008083540402835291602001916105ce565b820191906000526020600020905b8154815290600101906020018083116105b157829003601f168201915b505050505081526020016004820160009054906101000a900460ff161515151581526020016005820154815250509050806080015115816080019015159081151581525050806001600084815260200190815260200160002060008201518160000155602082015181600101908051906020019061064d9291906106f6565b50604082015181600201908051906020019061066a9291906106f6565b5060608201518160030190805190602001906106879291906106f6565b5060808201518160040160006101000a81548160ff02191690831515021790555060a082015181600501559050507f389dee00d487dd41dd5bf0f43eeaa5b663b3af022d52368df89d388150295f458282608001516040516106ea929190610964565b60405180910390a15050565b82805461070290610acd565b90600052602060002090601f016020900481019282610724576000855561076b565b82601f1061073d57805160ff191683800117855561076b565b8280016001018555821561076b579182015b8281111561076a57825182559160200191906001019061074f565b5b509050610778919061077c565b5090565b5b8082111561079557600081600090555060010161077d565b5090565b60006107ac6107a784610a28565b610a03565b9050828152602081018484840111156107c8576107c7610c0b565b5b6107d3848285610a8b565b509392505050565b600082601f8301126107f0576107ef610c06565b5b8135610800848260208601610799565b91505092915050565b60008135905061081881610c2b565b92915050565b60008060006060848603121561083757610836610c15565b5b600084013567ffffffffffffffff81111561085557610854610c10565b5b610861868287016107db565b935050602084013567ffffffffffffffff81111561088257610881610c10565b5b61088e868287016107db565b925050604084013567ffffffffffffffff8111156108af576108ae610c10565b5b6108bb868287016107db565b9150509250925092565b6000602082840312156108db576108da610c15565b5b60006108e984828501610809565b91505092915050565b6108fb81610a75565b82525050565b600061090c82610a59565b6109168185610a64565b9350610926818560208601610a9a565b61092f81610c1a565b840191505092915050565b61094381610a81565b82525050565b600060208201905061095e600083018461093a565b92915050565b6000604082019050610979600083018561093a565b61098660208301846108f2565b9392505050565b600060c0820190506109a2600083018961093a565b81810360208301526109b48188610901565b905081810360408301526109c88187610901565b905081810360608301526109dc8186610901565b90506109eb60808301856108f2565b6109f860a083018461093a565b979650505050505050565b6000610a0d610a1e565b9050610a198282610aff565b919050565b6000604051905090565b600067ffffffffffffffff821115610a4357610a42610bd7565b5b610a4c82610c1a565b9050602081019050919050565b600081519050919050565b600082825260208201905092915050565b60008115159050919050565b6000819050919050565b82818337600083830152505050565b60005b83811015610ab8578082015181840152602081019050610a9d565b83811115610ac7576000848401525b50505050565b60006002820490506001821680610ae557607f821691505b60208210811415610af957610af8610ba8565b5b50919050565b610b0882610c1a565b810181811067ffffffffffffffff82111715610b2757610b26610bd7565b5b80604052505050565b6000610b3b82610a81565b91507fffffffffffffffffffffffffffffffffffffffffffffffffffffffffffffffff821415610b6e57610b6d610b79565b5b600182019050919050565b7f4e487b7100000000000000000000000000000000000000000000000000000000600052601160045260246000fd5b7f4e487b7100000000000000000000000000000000000000000000000000000000600052602260045260246000fd5b7f4e487b7100000000000000000000000000000000000000000000000000000000600052604160045260246000fd5b600080fd5b600080fd5b600080fd5b600080fd5b6000601f19601f8301169050919050565b610c3481610a81565b8114610c3f57600080fd5b5056fea2646970667358221220bbbb7e660b4922dae0cb5a1e6d30c5270905c3cb2842541748feb5ee54a4d0e964736f6c63430008060033",
  "immutableReferences": {},
  "source": "// SPDX-License-Identifier: MIT\r\npragma solidity ^0.8.6;\r\n\r\n// Se crea el contrato\r\ncontract TasksContract {\r\n    // Lo vuelvo publica para poder llamarlo desde el entorno\r\n    uint public taskCounter = 0;\r\n\r\n    constructor(){\r\n        createTask(\"tarea por defecto\", \"sin comentarios\",\"0.003\");\r\n    }\r\n\r\n    event TaskCreated(\r\n        uint id,\r\n        string title,\r\n        string description,\r\n        string amount,\r\n        bool done,\r\n        uint createdAt\r\n    );\r\n\r\n    event TaskToggleDone (uint id, bool done);\r\n\r\n    // Parametrizar el tipo de dato de la tarea\r\n    struct Task{\r\n        uint id;\r\n        string title;\r\n        string description;\r\n        string amount;\r\n        bool done;\r\n        uint256 createdAt; //porque no fecha porque Solidity usa timestap\r\n    }\r\n\r\n    /* Mapping es un conjunto de datos que contiene un par clave valor y la key podria ser cualquier tipo de valor\r\n    para retornar debe recorrer todos los elementos\r\n    uint256 es un tipo de valor entero sin negativos */\r\n    mapping (uint256 => Task) public tasks; // la lista se llama task\r\n\r\n    /* Las variables a interactuar y memory significa que no se escriben aun en la blockhain si no que se guardan en memoria \r\n    luego hay que decirle como queremos ver esa funcion es decir que no solo es funcionamiento interno si no que tambien \r\n    la podre llamar fuera de la blockchain. */\r\n    \r\n    // Estos serian los metodos\r\n    function createTask(string memory _title, string memory _description, string memory _amount) public {\r\n        // Introducimos la tarea en la funcion\r\n        taskCounter++;\r\n        tasks[taskCounter] = Task(taskCounter, _title, _description, _amount, false, block.timestamp);\r\n        emit TaskCreated(taskCounter, _title, _description, _amount, false, block.timestamp);\r\n    }\r\n\r\n    function toggleDone(uint _id) public {\r\n        Task memory _task = tasks[_id];\r\n        _task.done = !_task.done; // Lo cambio a su valor contrario\r\n        tasks[_id ] = _task;\r\n        emit TaskToggleDone(_id, _task.done);\r\n    }\r\n}",
  "sourcePath": "C:\\Users\\acarr\\Desktop\\Folders\\blockchain\\project\\contracts\\TasksContract.sol",
  "compiler": {
    "name": "solc",
    "version": "0.8.6+commit.11564f7e.Emscripten.clang"
  },
  "schemaVersion": "3.4.4",
  "updatedAt": "2022-06-14T15:52:27.612Z",
  "networkType": "ethereum",
  "devdoc": {
    "kind": "dev",
    "methods": {},
    "version": 1
  },
  "userdoc": {
    "kind": "user",
    "methods": {},
    "version": 1
  }
}